S016000077726974696E675F696E5F6C63642E7372656342
S11300000C942A000C943F000C943F000C943F0085
S11300100C943F000C943F000C943F000C943F0060
S11300200C943F000C943F000C943F000C943F0050
S11300300C943F000C943F000C943F000C943F0040
S11300400C943F000C943F000C943F000C943F0030
S11300500C943F0011241FBECFE5D8E0DEBFCDBF16
S113006010E0A0E6B0E0EEE6F1E002C005900D92EB
S1130070AC36B107D9F70E9480000C94B5000C94FB
S1130080000095E092BB88BB89EF90E00197F1F7FF
S113009000C0000081E082BB89EF90E00197F1F796
S11300A000C00000089594E092BB88BB89EF90E003
S11300B00197F1F700C0000012BA89EF90E00197B0
S11300C0F1F700C00000089588E30E94530081E026
S11300D00E94530086E00E9453008EE00E94530069
S11300E00895CF93DF93EC018881882331F0219622
S11300F00E94410089918111FBCFDF91CF91089536
S1130100CF93DF93CDB7DEB72C970FB6F894DEBF4D
S11301100FBECDBF87E081BBE0E6F0E0DE011196C3
S113012001900D928A95E1F785E0E7E6F0E0DE01C3
S1130130189601900D928A95E1F70E946400CE0111
S113014001960E94710080EC0E945300CE01089633
S11301500E94710080E090E02C960FB6F894DEBF08
S11101600FBECDBFDF91CF910895F894FFCF6D
S10F016E435345273135004255455400E9
S9030000FC
