S017000070757368627574746F6E5F64656D6F2E73726563AD
S11300000C942A000C9434000C9434000C943400A6
S11300100C9434000C9434000C9434000C9434008C
S11300200C9434000C9434000C9434000C9434007C
S11300300C9434000C9434000C9434000C9434006C
S11300400C9434000C9434000C9434000C9434005C
S11300500C94340011241FBECFE5D8E0DEBFCDBF21
S11300600E9436000C9457000C9400008FEF8ABB5A
S113007017BA90E0B49B0BC09F5F2FE33DE083E091
S1130080215030408040E1F700C000000CC0B59B17
S11300900AC091502FE33DE083E02150304080407E
S11300A0E1F700C00000892F8F708BBBE3CFF89479
S10500B0FFCF7C
S9030000FC
