S0110000696E746572727570742E7372656326
S11300000C942A000C9449000C9472000C94470040
S11300100C9447000C9447000C9447000C94470040
S11300200C9447000C9447000C9447000C94470030
S11300300C9447000C9447000C9447000C94470020
S11300400C9447000C9447000C9447000C94470010
S11300500C94470011241FBECFE5D8E0DEBFCDBF0E
S113006010E0A0E6B0E0E0E5F1E002C005900D92FA
S1130070A236B107D9F720E0A2E6B0E001C01D9294
S1130080A336B207E1F70E949C000C94A6000C94DE
S113009000001F920F920FB60F9211242F938F938B
S11300A09F93809162008F3019F41092620003C014
S11300B08F5F809362009091600080916200892339
S11300C08BBB2FE38DE093E0215080409040E1F71B
S11300D000C000009F918F912F910F900FBE0F9041
S11300E01F9018951F920F920FB60F9211242F9301
S11300F08F939F9380916200811104C08FE080935D
S1130100620003C0815080936200909160008091EE
S1130110620089238BBB2FE38DE093E02150804064
S11301209040E1F700C000009F918F912F910F90B4
S11301300FBE0F901F9018958FEF8ABB109262002C
S113014080EC8BBF85E085BF7894FFCFF894FFCF18
S10501500F009A
S9030000FC
