:100000000C942A000C9434000C9434000C943400AA
:100010000C9434000C9434000C9434000C94340090
:100020000C9434000C9434000C9434000C94340080
:100030000C9434000C9434000C9434000C94340070
:100040000C9434000C9434000C9434000C94340060
:100050000C94340011241FBECFE5D8E0DEBFCDBF25
:100060000E9436000C9457000C9400008FEF8ABB5E
:1000700081E08BBB2FE33DE043E021503040404026
:10008000E1F700C0000082E021E001C0822F982F3C
:100090009F709BBB9FE33DE043E091503040404068
:1000A000E1F700C00000880F803189F7EFCFF894A6
:0200B000FFCF80
:00000001FF
