S016000077726974696E675F696E5F6C63642E7372656342
S11300000C942A000C943F000C943F000C943F0085
S11300100C943F000C943F000C943F000C943F0060
S11300200C943F000C943F000C943F000C943F0050
S11300300C943F000C943F000C943F000C943F0040
S11300400C943F000C943F000C943F000C943F0030
S11300500C943F0011241FBECFE5D8E0DEBFCDBF16
S113006010E0A0E6B0E0EEE4F2E002C005900D92EC
S1130070A837B107D9F70E94A4000C9425010C9469
S1130080000095E092BB88BB89EF90E00197F1F7FF
S113009000C0000081E082BB89EF90E00197F1F796
S11300A000C00000089594E092BB88BB89EF90E003
S11300B00197F1F700C0000012BA89EF90E00197B0
S11300C0F1F700C00000089588E30E94530081E026
S11300D00E94530086E00E9453008EE00E94530069
S11300E00895CF93DF93EC018881882331F0219622
S11300F00E94410089918111FBCFDF91CF91089536
S1130100CF93DF9300D000D000D0CDB7DEB726E088
S1130110E0E6F0E0DE01119601900D922A95E1F7F8
S1130120462F50E0BE016F5F7F4F0E94E500CE0175
S113013001960E94710026960FB6F894DEBF0FBE9A
S1130140CDBFDF91CF910895CF93DF93CDB7DEB7C5
S113015061970FB6F894DEBF0FBECDBF87E081BBB9
S113016086E0E6E6F0E0DE011C9601900D928A95A9
S1130170E1F78BE0ECE6F0E0DE01119601900D92E0
S11301808A95E1F70E94640084E80E945300CE013E
S11301900C960E9471006AE088E690E00E9480005C
S11301A080EC0E94530083EC0E945300CE01019620
S11301B00E94710080E090E061960FB6F894DEBF73
S11301C00FBECDBFDF91CF9108954532510520F484
S11301D0423010F00C94F000FB011082CB01089522
S11301E0BB274A3031F4992322F4BDE290958195DE
S11301F09F4F0C94FC00BB27FB015527AA27880FAF
S1130200991FAA1FA41710F0A41B83955051B9F786
S1130210A05DAA3308F0A95DA193009779F7B11105
S1130220B1931192CB010C941501DC01FC01672FF1
S113023071917723E1F7329704C07C916D937083B9
S11102406291AE17BF07C8F30895F894FFCF7C
S113024E303030303000726F6F6D2D0061756C611F
S10B025E2C2062756574000098
S9030000FC
