S0170000636F756E7465722D706F6C6C696E672E73726563EB
S11300000C942A000C9434000C9434000C943400A6
S11300100C9434000C9434000C9434000C9434008C
S11300200C9434000C9434000C9434000C9434007C
S11300300C9434000C9434000C9434000C9434006C
S11300400C9434000C9434000C9434000C9434005C
S11300500C94340011241FBECFE5D8E0DEBFCDBF21
S11300600E9436000C945F000C9400008FEF8ABB52
S113007017BA84BB80E021E0B49B0FC08F5F982F38
S11300809F709BBB25BB3FE34DE093E03150404064
S11300909040E1F700C00000EFCFB59B0EC0815047
S11300A0982F9F709BBB3FE34DE093E0315040405D
S11300B09040E1F700C00000DFCF15BADDCFF8941F
S10500C0FFCF6C
S9030000FC
