S0170000636F756E7465722D706F6C6C696E672E73726563EB
S11300000C942A000C9434000C9434000C943400A6
S11300100C9434000C9434000C9434000C9434008C
S11300200C9434000C9434000C9434000C9434007C
S11300300C9434000C9434000C9434000C9434006C
S11300400C9434000C9434000C9434000C9434005C
S11300500C94340011241FBECFE5D8E0DEBFCDBF21
S11300600E9436000C9466000C9400008FEF8ABB4B
S113007017BA80E090E05FE040E030E020E0B49B1D
S113008012C08F30910511F0019602C0832F922F78
S11300908BBB6FE37DE0E3E061507040E040E1F74B
S11300A000C00000ECCFB59BEACF009711F0019798
S11300B002C0852F942F8BBB6FE37DE0E3E061509A
S11300C07040E040E1F700C00000D9CFF894FFCFC2
S9030000FC
