S01700006164635F616E645F646973706C61792E73726563FE
S11300000C942A000C9434000C9434000C943400A6
S11300100C9434000C9434000C9434000C9434008C
S11300200C9434000C9434000C9434000C9434007C
S11300300C9434000C9434000C9434000C9434006C
S11300400C9434000C9434000C9434000C9434005C
S11300500C94340011241FBECFE5D8E0DEBFCDBF21
S11300600E9445000C948C020C9400003E9A87E890
S113007086B9089597B18770982B97B9369A349BAF
S1130080FECF349A84B195B108958FEF81BB84BBC0
S11300901ABA0E94360080E00E943A00BC0180E057
S11300A090E00E949B0120E030E040EA50E40E948E
S11300B0290220E030EC4FE754E40E9402014B0196
S11300C05C010E946A016B017C01882777FD8095A1
S11300D0982F0E949D019B01AC01C501B4010E94AF
S11300E09D0020E030E040E251E40E9429022B010F
S11300F03C010E946A014B015C01882777FD8095D1
S1130100982F0E949D019B01AC01C301B2010E9482
S11301109D00880C991C880C991C880C991C880CCF
S1130120991CC828C5BA20E030E040E251E40E949E
S113013029020E946A0162BBAECF5058BB27AA278E
S11301400ED04DC13ED130F043D120F031F49F3F69
S113015011F41EF433C10EF4E095E7FB29C1E92F35
S11301604FD180F3BA17620773078407950718F015
S113017071F49EF567C10EF4E0950B2EBA2FA02DF5
S11301800B01B90190010C01CA01A0011124FF2740
S1130190591B99F0593F50F4503E68F11A16F0403B
S11301A0A22F232F342F4427585FF3CF469537953A
S11301B02795A795F0405395C9F77EF41F16BA0BFF
S11301C0620B730B840BBAF09150A1F0FF0FBB1FAD
S11301D0661F771F881FC2F70EC0BA0F621F731FF6
S11301E0841F48F4879577956795B795F7959E3F53
S11301F008F0B3CF9395880F08F09927EE0F9795E1
S1130200879508950CD0EBC0E3D040F0DAD030F0FD
S113021021F45F3F19F0CCC0511115C1CFC0F0D00B
S113022098F39923C9F35523B1F3951B550BBB27B9
S1130230AA2762177307840738F09F5F5F4F220F66
S1130240331F441FAA1FA9F333D00E2E3AF0E0E85F
S113025030D091505040E695001CCAF729D0FE2FAB
S113026027D0660F771F881FBB1F2617370748073D
S1130270AB07B0E809F0BB0B802DBF01FF279358F3
S11302805F4F2AF09E3F510568F092C0DCC05F3F8B
S1130290ECF3983EDCF3869577956795B795F795DB
S11302A09F5FC9F7880F911D9695879597F90895D3
S11302B0E1E0660F771F881FBB1F6217730784076F
S11302C0BA0720F0621B730B840BBA0BEE1F88F77E
S11302D0E095089504D06894B111B5C0089598D0FC
S11302E088F09F5790F0B92F9927B751A0F0D1F01B
S11302F0660F771F881F991F1AF0BA95C9F712C0A5
S1130300B13081F09FD0B1E008959CC0672F782F61
S11303108827B85F39F0B93FCCF386957795679510
S1130320B395D9F73EF490958095709561957F4F7C
S11303308F4F9F4F0895E89409C097FB3EF4909522
S11303408095709561957F4F8F4F9F4F9923A9F0AA
S1130350F92F96E9BB279395F69587957795679539
S1130360B795F111F8CFFAF4BB0F11F460FF1BC07D
S11303706F5F7F4F8F4F9F4F16C0882311F096E910
S113038011C0772321F09EE8872F762F05C06623BE
S113039071F096E8862F70E060E02AF09A95660F77
S11303A0771F881FDAF7880F9695879597F9089530
S11303B097F99F6780E870E060E008959FEF80EC14
S11303C0089500240A9416161706180609060895B7
S11303D000240A9412161306140605060895092E1D
S11303E00394000C11F4882352F0BB0F40F4BF2B8C
S11303F011F460FF04C06F5F7F4F8F4F9F4F0895CC
S113040057FD9058440F551F59F05F3F71F04795C1
S1130410880F97FB991F61F09F3F79F087950895A6
S1130420121613061406551FF2CF4695F1DF08C0C5
S1130430161617061806991FF1CF869571056105E2
S113044008940895E894BB2766277727CB0197F98A
S113045008950BD0C4CFB5DF28F0BADF18F0952388
S113046009F0A6CFABCF1124EECFCADFA0F3959F3E
S1130470D1F3950F50E0551F629FF001729FBB2787
S1130480F00DB11D639FAA27F00DB11DAA1F649F33
S11304906627B00DA11D661F829F2227B00DA11DE6
S11304A0621F739FB00DA11D621F839FA00D611D6C
S11304B0221F749F3327A00D611D231F849F600D8D
S11304C0211D822F762F6A2F11249F5750408AF0C6
S11304D0E1F088234AF0EE0FFF1FBB1F661F771F52
S11304E0881F91505040A9F79E3F510570F060CF8E
S11304F0AACF5F3FECF3983EDCF38695779567953A
S1130500B795F795E7959F5FC1F7FE2B880F911D6F
S10F05109695879597F90895F894FFCF0D
S9030000FC
